:10000000F8FF002011040000D72A0000D72A0000C2
:10001000D72A0000D72A0000D72A0000D72A0000DC
:10002000D72A0000D72A0000D72A0000D72A0000CC
:10003000D72A0000D72A0000D72A0000D72A0000BC
:10004000D72A0000D72A0000D72A0000D72A0000AC
:10040000FFFFFFFFFFFFFFFFFFFFFFFFFEFFFFFFFD
:1004100062B602F0A9FFFEE72DE9F04FA1B08246D7
:10042000002017461D4602910B900DF1440B6FF012
:1004300000490AE017F8011B0298D04702900028F3
:1004400000F0A3820B98401C0B90387808B90B98E9
:100450009DE22528EED10020059006900790089097
:1004600009900A9001E040F0010017F8011F2029CF
:10047000F9D023290DD02B2904D02D2906D03029DD
:100480000AD00CE040F0020080B2EEE740F0040039
:10049000FAE740F00800F7E740F01000F4E72A29F7
:1004A0000ED12968296051F8042B29600D92002A89
:1004B00004D5514240F004000D9180B27F1C11E040
:1004C00000210D9109E00D99494505D001EB81030B
:1004D00002EB430130390D917F1C3A78A2F13001D3
:1004E0000A29F0D339782E2903D04FF0FF310C912F
:1004F0001DE017F8011F2A2907D1296829607F1CF0
:1005000051F8042B29600C9211E000210C9109E0B4
:100510000C99494505D001EB810302EB43013039C9
:100520000C917F1C3A78A2F130010A29F0D3ADF882
:1005300038000FF6B820397800F076FD08B117F8CA
:10054000010B8DF83A009DF83A00682802BF39780F
:100550006829622005D06C2804BF38786C2803D144
:1005600071208DF83A007F1C11A8049017F8014BF8
:10057000B4F1250024D02038022840F2C680133878
:1005800000F0EC800B3800F05081401E00F0258117
:10059000401E022840F2B980001F00F01E81401F5B
:1005A00000F08480401E00F0D980401E29D0C01E7B
:1005B0000CD0801E00F0D280C01E00F0CF803EE143
:1005C0000120059025208DF8440044E1286828602A
:1005D00050F8044B28600394DDF83080B8F1000F28
:1005E00004D5204600F02CFD804607E0424600215D
:1005F000204600F041FD08B1A0EB0408CDF81880BA
:1006000029E1296829604FF03C0851F8040B296062
:100610000021CDE9000111A80390DDE90001049C4F
:1006200011B908B90C9ACAB10206120FA0EB021256
:100630003032A8F1010ED2B2F0463A2AA8BF2732D2
:1006400000090EF8042040EA0170090908BF0028DB
:1006500004D0039A08EB04039A42E5D308EB0400A4
:100660000390C8F13C010C980691814209DA401AC6
:1006700008904FF6EF71BDF838000840ADF838002B
:10068000E9E0002840F1E7809DF8380000F0140010
:10069000102840F0E0800D98059A801A089A801A78
:1006A000401A0128C0F2D7800890D4E09DF83A00A3
:1006B00062281AD0682806D06A280CD06C281CD072
:1006C000712808D019E02868286050F8041B2860B9
:1006D0000B980880BFE02868286050F8042B286039
:1006E0000B98C117C2E90001B5E02868286050F8EE
:1006F000041B28600B980870ADE02868286050F84B
:10070000041B28600B980860A5E02868C01D20F035
:1007100007022A60D2E9000108322A60CDE900010F
:10072000002903D5012005902D200CE0BDF83800EC
:10073000810703D5012005902B2004E0C00704D5D4
:100740000120059020208DF84400059911A8081873
:100750000390214600A800F0D7F97CE09DF83A20EC
:100760006C2A0DD0712A18BF6A2A09D12868C01DC9
:1007700020F007032B60D3E9000108332B6005E06C
:100780002968296051F8040B29600021CDE9000196
:10079000682A08BF80B207D0622A08BFC0B203D05F
:1007A000742A18BF7A2A02D10021CDE900019DF8F0
:1007B0003800000730D5DDE90001002908BF002816
:1007C0002AD044F02000782826D130208DF844002B
:1007D0008BF80140022005901EE029469DF83A0062
:1007E00000F0D8F8CDE90001002904DA0598411C91
:1007F00005912D210EE0BDF83800810704D505983C
:10080000411C05912B2105E0C00705D50598411C29
:100810000591202100F80B10059911A808180390E4
:10082000214600A800F0EDF815E0012005902868A9
:10083000286050F8041B28608DF844100BE001205C
:10084000059025208DF84400002C04D00598411C0B
:10085000059100F80B400D980599401A0899401A27
:100860000699401A0999401A0799401A0A99A0EB6B
:1008700001089DF8380040070FD420208DF8400073
:10088000002408E0012310AA00A9504600F097FBBD
:1008900000287AD1641C4445F4DB059C11AE0AE0C3
:1008A00016F8011B0298D047029000286DD00B98D3
:1008B000401C0B90641E002CF2D130208DF84000BB
:1008C0000026089C08E0012310AA00A9504600F069
:1008D00076FB002859D1761CA642F4DB069C039EC9
:1008E0000AE016F8011B0298D047029000284CD06D
:1008F0000B98401C0B90641E002CF2D130208DF818
:1009000040000026099C07E0012310AA00A95046D8
:1009100000F055FBC8BB761CA642F5DB0398069990
:10092000079C0E1809E016F8011B0298D0470290A8
:1009300058B30B98401C0B90641E002CF3D1302050
:100940008DF8400000260A9C07E0012310AA00A9A8
:10095000504600F034FBC0B9761CA642F5DB9DF88A
:10096000380040077FF571AD20208DF8400000244D
:1009700000E0641C4445BFF668AD012310AA00A93D
:10098000504600F01CFB0028F3D04FF0FF3021B0A0
:10099000BDE8F08F622826D068281DD06A2808D0CC
:1009A0006C2827D0712804D0742823D07A280CD042
:1009B00020E00868C01D20F007000860D0E900238F
:1009C000083008601946104670470A680A6052F8F5
:1009D000040B0A60002170470A680A6052F8040B91
:1009E0000A6000B20BE00A680A6052F8040B0A6061
:1009F00040B204E00A680A6052F8040B0A60C117AA
:100A000070472DE9FA4E05460A462F696F2A08BF3E
:100A1000082405D041F02000782814BF0A241024AF
:100A2000D5E900013C2681468A46642A18BF692A16
:100A300005D1002903DAD9F100096AEB4A0ABAF1B3
:100A4000000F08BFB9F1000F0CD1286B50B9082C6A
:100A500036D195F83800000732D530203B2687F88C
:100A60003B002DE0E31748465146224600F030FB9C
:100A7000A4FB0023A9EB02023032A6F1010BD2B293
:100A80005E463A2A03DB9DF80030513B9A180BF87A
:100A9000072081465FEA010A08BFB9F1000F03D0C1
:100AA000E868F1198842DDD3082C09D195F838009F
:100AB000000705D5F05D302802D0761E3020F055B5
:100AC000C6F13C00A861F119E960296B884208DA97
:100AD000081A28624FF6EF71288F08402887BDE872
:100AE000F38E00290ED595F8381001F01401102965
:100AF00008D1696B6A69891A2A6A891A081A012851
:100B0000A8BF2862BDE8F38E2DE9F34F8BB0D0E982
:100B10000089006B01AF002848BF062005D404BF40
:100B200041F02000672802D101200B99086340F2B0
:100B3000FF720B984168C1F30A50904220D108031C
:100B400002BF0B98006800280AD10B990320886126
:100B50009DF8300061381A2858D30FF2A44109E0FB
:100B60000B99032088619DF8300061381A284AD318
:100B70000FF284410B98C068032200F021FB00E1D2
:100B8000012807DA0B9800F056FB012802DB00234E
:100B90000026EDE00B9A526840F2FE3161F31E52DE
:100BA0000B994A6040F2FE31461A404649460022FF
:100BB000002300F061FB38BF89F0004936B247F2EC
:100BC000975070434949DFF828B190FBF1F636B2EF
:100BD000C6F107079246012F1BDBF80707D55246DF
:100BE0005B464046494600F05FFB804689467F10E1
:100BF0005046594652465B4600F056FB82468B46AD
:100C0000002FEAD126E00FF2EC31B3E70FF2EC311E
:100C1000B0E77F420024374D12E0F80707D552466F
:100C20005B462046294600F03FFB04460D467F10F8
:100C30005046594652465B4600F036FB82468B468C
:100C4000002FEAD14046494622462B4600F0FEFBE3
:100C5000804689469DF8300040F02005662D0CBF87
:100C600006F10A0006200B99096B4718142FA8BF3C
:100C7000132730208DF804000DF10504DFF878B05B
:100C8000012F3BDB4046494600F004FD014604F1DC
:100C9000080204234FF00A0CB1FBFCFC0CEB8C04A3
:100CA000A1EB4401303102F8011D0A21BCFBF1FE29
:100CB0000EEB8E04ACEB44043034714602F8014D67
:100CC0005B1EE7D1083F02F10804012FD8DB00F0DA
:100CD000F7FC02460B464046494600F0FFFC002266
:100CE0005B4600F0E1FA80468946CBE7A08601002A
:100CF000000024400000F03F84D797410DF105002B
:100D0000201A0DF1050702E0401E761E7F1C39787F
:100D10003029F9D0662D02D136B2711C03E0652D61
:100D20000CBF012100210B9A126B8B181BB2984249
:100D3000B8BF03461BB219001AD4814204DAC85D59
:100D40003528A8BF392000DA3020CA19521E00E029
:100D50005B1E12F80159491E8542F9D0392802D18B
:100D6000C85D401CC855002902D57F1E5B1C761C3F
:100D700036B29DF830100B9800961BB23A4600F040
:100D800003F80DB0BDE8F08F2DE9F04786B00646B8
:100D90008A4690461D4600F07EFD406A376B90F80B
:100DA0000090012D02DA01250FF258284AF02000A8
:100DB000BDF93840662808BF641C13D0672840F08E
:100DC000888014F1040F73DBBC4271DA96F83800A6
:100DD000641C000702D4BD42B8BF2F4624B23F1B9B
:100DE00048BF0027F068B16924B2012C21DA302312
:100DF0004A1C0B54012F03DA96F83810090702D564
:100E000002F80090521CB261E742B8BF7C4224B2A3
:100E10006142E7197162AF42B8BF3D462DB2F5613C
:100E20002A46B3694146181800F0CAF9781BB06227
:100E3000AEE00818A54216DA2A46414600F0C0F98D
:100E4000B1696918B161601B7062012F03DA96F80D
:100E50003800000705D5F06801F80090F069401CE3
:100E6000F061B76294E02246414600F0A9F9B0690A
:100E700020182D1B012F03DA96F83810090703D527
:100E8000F16800F80190401C2DB2B061AF42B8BFCC
:100E90003D46F068B3692DB22A4604EB08011818E4
:100EA00000F08EF9B0692818B061781B70626FE0AD
:100EB000BD4204DA96F83810090758BF2F467F1E46
:100EC00048BF0027BAF1670F0CBF4FF0650A4FF01B
:100ED000450AB169F06818F8013B0B544A1C012F10
:100EE00005DA96F83810090758BFB26115D502F82F
:100EF0000090531CB361012F0FDB6D1E2DB2AF426A
:100F0000B8BF3D462DB22A464146181800F058F9A0
:100F1000B0692818B061781B7062F068B16901EBA4
:100F20000008200008F801AB03D42B2008F8010BBF
:100F300003E02D2108F8011B6442002502AF08E000
:100F40000A2200A800F0C0FC019807F8010B6D1CF4
:100F5000009C21B20129F3DA022D06DA4AF02000C2
:100F6000652804BF302008F8010B4DB9302008F87F
:100F7000010B07E06D1E02A8285C303008F8010B59
:100F8000012DF7DAF068B1690818A8EB0000F061EC
:100F900096F8380000F0140010280DD17069B1697E
:100FA0000818716A0818F1690818B16A0818716B95
:100FB0008842BCBF081A306206B0BDE8F087F8B5B9
:100FC00004460D4616461F46002004E0E86A401C11
:100FD000E8627F1E002047B116F8011BA868A047F1
:100FE000A8600028F2D14FF0FF30F2BD686A6C743F
:100FF0007A4C00006E616E004E414E00696E6600D4
:10100000494E4600300050F8041B61B150F8042BE3
:10101000D30744BFA9F101039A18002342F8043B07
:10102000091FFAD1EFE770470278C9B28A421AB1B4
:101030001CBF10F8012FF9E718BF0020704700000F
:1010400000F10103810704D010F8011B89B1810769
:10105000FAD10268B2F10131914311F0803F04BF2F
:1010600050F8042FF6E710F8011B11B110F8011B1E
:10107000FBE7C01A70470000C9B2830706D0521EB2
:1010800022D310F8013B9942F7D11FE0083A13D35D
:1010900002F1040241EA012141EA014150F8043B16
:1010A000121F21BF4B40A3F1013C2CEA030C1CF0A2
:1010B000803FF3D0C9B2001F083210F8013B521E26
:1010C00028BF91EA030FF8D818BF0120401E7047CF
:1010D0001B4213D1094236D12AB18446B0FBF2F04B
:1010E00002FB10C2704700F0F7BBFCD300220023C4
:1010F00070470B000200002100207047904271EB06
:10110000030CF6D370B5B1FA81F4B3FA83F52C1B56
:10111000A340C4F1200532FA05F63343A2405FF044
:101120000046E64002E05B085FEA3202841A71EB97
:10113000030524BF204629467641F4D302000B0064
:101140003000002170BD012ACFD970B5140C20D019
:10115000B1FA81F4B2FA82F5C4F120046419B4F151
:101160002006D6D3B2405FF00044F440002502E0F0
:1011700052085FEA3303C61A71EB020E24BF3046F1
:10118000714664416D41F3D302000B002000290039
:1011900070BD0C46B1FBF2F102FB11452D0445EA8E
:1011A0001045B5FBF2F402FB145580B240EA054548
:1011B000B5FBF2F002FB105240EA044070BD0000A3
:1011C00062B38B0708D0521E11F8013B00F8013BB7
:1011D00000F024808B07F6D1830740F0208000BF09
:1011E000103A07D330B4B1E83810103AA0E83810FC
:1011F000F9D230BC530724BFB1E80810A0E80810AA
:1012000044BF51F8043B40F8043BD20724BF31F8F7
:10121000022B20F8022B44BF0B7803707047083A6A
:1012200007D3B1E80810083A40F8043B40F804CB73
:10123000F7D25307E4E730B4436803F000420121DA
:101240001B031B0B436004BF0368002B08D10DE098
:101250000368DD0F45EA440444605B000360491EF7
:101260004468E302F4D523031B0B436043681A432D
:101270004260084630BC70474FF4001C1CEB410F25
:1012800094BF1CEB430F09E041EA030C50EA4C0CFD
:1012900052EA0C0C03D2994208BF9042704714BF27
:1012A0008B42824270470000B0B581EA030C0CF01B
:1012B000004C40F2FF7515EA11541DBF15EA135793
:1012C000AC42AF4239E0E41923EA455343F48013BA
:1012D000C90241F0004141EA505EC7021100A7FB7C
:1012E000020200284FF00000EEFB01204FF0000149
:1012F000E3FB072118BF42F00102401800214941D9
:10130000E3FB0E01A4F580640F0302D252004041BA
:10131000494154F101046CDD470872F1004250F17B
:10132000000051EB0451A1F580115CBF41EA0C01B2
:10133000B0BD4CEA05510020B0BD05EA1357AC42E0
:1013400014BFAF4241E050EA410E1CBF52EA430EC7
:1013500002E061460020B0BD24423C441BD15FEA5C
:10136000070EF6D0090302BF01460020AEF1140EAD
:10137000B1FA81F7AEEB070401FA07FE0C37C7F1AB
:10138000200100FA07F7C8404EEA000E23EA455351
:1013900043F48013A2E733F00043B3FA83F704BFAA
:1013A000B2FA82FE77440B3FE41BB7F1200E2FBF49
:1013B00002FA0EF3BB40C7F1200E22FA0EFE38BF30
:1013C00043EA0E03BA40641C82E750EA410E14BFA0
:1013D00052EA430E6FF000014FF4001717EB430F72
:1013E0008ABF194617EB410FB5E74CEA05510020BB
:1013F000B0BDD4F10104B4F120070FDAC4F1200725
:10140000520828BF42F0010210FA07F501FA07F767
:10141000E1BF2A43E0403843E1400FE0352C98DC3F
:10142000C7F1200452EA400220FA07F218BF42F046
:10143000010231FA07F0A1400A43002172F1004293
:1014400050F1000051EB0C01B0BD0000F0B540F2CE
:10145000FF7581EA030C0CF0004C15EA11541DBF16
:1014600015EA1357AC42AF42E5E0BC41C1F31301AA
:10147000C3F31303801A994143F4801304D2641E0A
:101480004000494180185941C90241EA5051B1FB1D
:10149000F3F603FB1611A2FB0675D7EBC020A9419A
:1014A00002D2761E80185941C90241EA5051B1FB5F
:1014B000F3FE03FB1E11A2FB0E75D7EBC020A94162
:1014C00003D2AEF1010E80185941890241EA9051D0
:1014D000760546EA8E2EB1FBF3F603FB1611A2FB4E
:1014E0000675D7EB8020A94102D2761E801859419B
:1014F000C90241EA50514EEA060EB1FBF3F603FB76
:101500001611A2FB0675D7EBC020A94102D2761EA8
:1015100080185941C90241EA5051B1FBF3F703FB6E
:101520001711A2FB0735D3EBC020A94167F10007D3
:101530000CBF004247F0010766F3D5274FEA1E3182
:10154000B80814F5806412DDBD0775F1004250EB58
:101550000E5051EB045111F5801F5CBF41EA0C01A4
:10156000F0BD4CF07F6141F0E0410020F0BDBD07CF
:101570006D0840EA0E5041F48011D4F10104B4F139
:1015800020060ADAC4F120060200E04001FA06F360
:10159000E1401843B24015430EE0342C13DCC6F191
:1015A000200445EA40056D0820FA06F2154321FAA9
:1015B00006F0A1400D43002175F1004250F10000FA
:1015C00051EB0C01F0BD00205FEA0C01F0BDCFB97A
:1015D00092185B41B3FA83F704BFB2FA82F6BF19DF
:1015E0000B3FB7F120062FBF02FA06F3BB40C7F14D
:1015F000200622FA06F638BF3343BA401CB1E4197C
:10160000641E33E77F4231F00041B1FA81F404BF38
:10161000B0FA80F6A4190B3CB4F120062FBF00FAF3
:1016200006F1A140C4F1200620FA06F638BF314386
:10163000A0403C1B1AE7AC421ABF05EA1357AF4261
:1016400012E050EA41061CBF52EA4306BFE750EAE7
:101650004107304661461CBF41EA0551F0BD52EAE0
:10166000430C08BFC143F0BD00204FF4001616EB39
:10167000410F98BF16EB430F08BF16EB410F24BF75
:10168000C14305E016EB430F0CBF61464CEA055120
:10169000F0BD0000400D40EAC120490080F00D80FF
:1016A00040F00040490DA1F58061491C05D4D1F1FD
:1016B0001F0154BFC840C01770474FF0000070476B
:1016C000010000BF09D0B0FA80F18840C91CC1F503
:1016D0008461090501EBD0214005704770B44FF0DB
:1016E000004591EA030F44BF6B4000F0F7B800BF1C
:1016F000841A71EB030604D26E40001BB14112192B
:1017000073414FF4001C1CEB410F34BF7CEB4306CC
:1017100084E00C0DA4EB1356362E7DDC012E43DC49
:1017200045EAC32343EA525312BFD20292025B0836
:10173000240545EAC12141EA5051D2EBC02099412C
:1017400025D407D1B0FA80F610FA06F164D0002053
:10175000203608E0B1FA81F6B140C6F1200220FA45
:1017600002F21143B0404FEAF474B4EB465434F043
:1017700001064FEA74040AD8D6F50016760D04F077
:101780000044F04061FA06F25040F1404840C00A7F
:1017900040EA415021F0004128BF5FEA500550F176
:1017A000000044EBD12137E045EAC323DB0A45EAD8
:1017B000C121C90AB6F120050EDD42EA0242120C2F
:1017C000C5F1200603FA06F6EB4042EA06056D4233
:1017D000984161F100010DE062FA06F5F2405540D2
:1017E00063FA06FC82EA0C02F3405A406D429041D3
:1017F00061EB030111F4801F05D1641E620502D064
:101800006D004041494121F48011430875F10043C6
:1018100050F1000041EB045170BC70471CEB410FCC
:1018200015D223F0004352EA43060BD04FEA4C0C8A
:10183000BCEB410F04D80C0D661E342EB7DDEBE770
:10184000801A994150EA410608BF0021E4E708BF29
:101850001CEB430F28BF6FF00001DDE780B5134894
:1018600000F0A6F80FF24801016041608160C1609C
:101870000161416181610FF23C0242628162C16299
:10188000016341630FF2300282630FF23402C263DC
:101890000164416401BD10B5044800F089F80446B4
:1018A000206808B9FFF7DAFF204610BD1421FF1F9A
:1018B000000000002E00000066616C7365000000EF
:1018C000747275650000000091FBF2F303FB1211C6
:1018D000C0E900317047000070470000841A71EBC6
:1018E000030603D2001BB141121973414FF4001CCF
:1018F0001CEB410F34BF7CEB430443E00C0DA4EB25
:101900001356352E50DC45EAC323DB0A45EAC121D4
:10191000C912B6F120050DDD63FA05F6EB4086EA43
:101920000305124218BF45F00105C01851F100012E
:101930000CD213E062FA06F5F2405540F3415A40EA
:10194000B340F3405A408018594107D349085FEA31
:1019500030005FEA350528BF45F0010501F580112B
:10196000420875F1004250F1000041EB045170BC97
:101970004FF4001C1CEB410F38BF70470020090DCD
:10198000090570471CEB410F10D252EA43060BD0F9
:10199000BCEB410F05D80C0DAB43661E342EB5DDF4
:1019A00002E0AB438018594170BC704770BC70476F
:1019B0007047000000000000000000000000000070
:1019C0000000000000000000000000000000000017
:1019D00000004E6F6E4D61736B61626C65000000BC
:1019E00000486172644661756C740000000000007C
:1019F0004D656D4D616E6167656D656E7400004289
:101A000075734661756C740000000000000055732A
:101A10006167654661756C7400000000000000009D
:101A200000000000000000000000000000000000B6
:101A300000000000000000000000000000000000A6
:101A40000000000000000000000000000000000096
:101A5000000000000000000000535643616C6C0061
:101A6000000000000000000044656275674D6F6E65
:101A700069746F72000000000000000000000000A8
:101A800000000000000050656E6453560000000026
:101A900000000000005379735469636B000000007C
:101AA00000000000444D4130000000000000000034
:101AB000000000444D413100000000000000000023
:101AC0000000444D41320000000000000000000012
:101AD00000444D4133000000000000000000000001
:101AE000444D4134000000000000000000000044AC
:101AF0004D41350000000000000000000000444D92
:101B000041360000000000000000000000444D418C
:101B1000370000000000000000000000444D413884
:101B20000000000000000000000000444D413900AA
:101B300000000000000000000000444D4131300072
:101B4000000000000000000000444D413131000061
:101B50000000000000000000444D41313200000050
:101B600000000000000000444D413133000000003F
:101B7000000000000000444D41313400000000002E
:101B80000000000000444D4131350000000000001D
:101B900000000000444D415F4572726F720000000A
:101BA0000000004D434D0000000000000000000058
:101BB00000004654464C00000000000000000000F9
:101BC00000526561645F436F6C6C6973696F6E008E
:101BD0004C56445F4C565700000000000000004C7B
:101BE0004C5700000000000000000000000057619A
:101BF000746368646F6700000000000000524E4785
:101C000000000000000000000000000049324330E6
:101C100000000000000000000000004932433100D5
:101C20000000000000000000000053504930000098
:101C30000000000000000000005350493100000087
:101C40000000000000000000535049320000000076
:101C50000000000000000043414E305F4F525F4DD6
:101C6000425F6275660043414E305F4275735F4F5D
:101C7000666600000043414E305F4572726F72002D
:101C80000000000043414E305F54785F5761726E30
:101C9000696E6743414E305F52785F5761726E697B
:101CA0006E6743414E305F57616B655F5570000052
:101CB000005265736572766564353100000000007E
:101CC000526573657276656435320000000000432A
:101CD000414E315F4F525F4D425F62756600434136
:101CE0004E315F4275735F4F666600000043414EA0
:101CF000315F4572726F72000000000043414E3147
:101D00005F54785F5761726E696E6743414E315F11
:101D100052785F5761726E696E6743414E315F570B
:101D2000616B655F55700000005265736572766582
:101D30006435390000000000526573657276656491
:101D40003630000000000055415254305F52585F59
:101D500054580000000055415254305F4552520023
:101D6000000000000055415254315F52585F5458F2
:101D70000000000055415254315F455252000000AE
:101D800000000055415254325F52585F54580000D1
:101D9000000055415254325F45525200000000008D
:101DA0000055415254335F52585F545800000000B0
:101DB00055415254335F4552520000000000005517
:101DC000415254345F52585F54580000000055414E
:101DD0005254345F455252000000000000554152F9
:101DE00054355F52585F545800000000554152541A
:101DF000355F45525200000000000041444330006E
:101E000000000000000000000000414443310000D9
:101E1000000000000000000000434D5030000000B2
:101E20000000000000000000434D503100000000A1
:101E300000000000000000434D5032000000000090
:101E400000000000000046544D300000000000007B
:101E5000000000000046544D31000000000000006A
:101E60000000000046544D32000000000000000059
:101E7000000000434D54000000000000000000007E
:101E80000000525443000000000000000000000069
:101E90000052657365727665643833000000000097
:101EA00050495430000000000000000000000050C5
:101EB00049543100000000000000000000005049BB
:101EC000543200000000000000000000005049549F
:101ED00033000000000000000000000050444230C9
:101EE00000000000000000000000005553423000D8
:101EF000000000000000000000005553424443442D
:101F0000000000000000000000454E45545F3135E0
:101F100038385F54696D6572454E45545F5472613F
:101F20006E736D69740000454E45545F526563657C
:101F3000697665000000454E45545F4572726F72C8
:101F40000000000000493253300000000000000093
:101F5000000000005344484300000000000000005F
:101F60000000004441433000000000000000000079
:101F70000000444143310000000000000000000068
:101F80000054534930000000000000000000000031
:101F90004D43470000000000000000000000004C1E
:101FA0005054696D65720000000000000000526529
:101FB00073657276656431303200000000504F5214
:101FC000544100000000000000000000504F525437
:101FD0004200000000000000000000504F52544337
:101FE00000000000000000000000504F5254440068
:101FF000000000000000000000504F525445000057
:102000000000000000000000526573657276656490
:1020100031303800000000526573657276656431B6
:1020200030390000000052657365727665643131A5
:10203000300000000052657365727665643131319D
:1020400000000000526573657276656431313200BC
:1020500000000052657365727665643131330000AB
:10206000000052657365727665643131340000009A
:102070000052657365727665643131350000000089
:102080005265736572766564313136000000005226
:102090006573657276656431313700000000526502
:1020A00073657276656431313800000000526573E3
:1020B00065727665643131390000000000F00F4030
:1020C00040F00F4080F00F40C0F00F4000F10F4093
:1020D00066000A1D32000701640007106E00040646
:1020E000780004088200040A8C00040C9600040E98
:1020F000A0000410AA000412B4000414BE000416C8
:10210000C8000418D200041ADC00041CE100041DFD
:10211000E600041EEB00041FF4000317FA00031886
:10212000130101062C01021400010908009004406B
:1021300000A0044000B0044000C0044000D00440AF
:1021400000A0064000B0064000C0064000D0064097
:1021500000A00E4000B00E406A6E6B6C6F6D4E4F6B
:102160003435363702040101C020FF1F1021FF1F44
:10217000C020FF1FC020FF1FC020FF1FFD0BFF1F3F
:10218000E40BFF1F00000000000000000000000042
:10219000000000000000000000000000000000003F
:1021A00000000000DFF800F0A10DFF1FDFF8B413FE
:1021B00040B231F8201040B20128C0F2788140B21C
:1021C000162880F274810022DFF89C331A7089B2DD
:1021D000652904DA0022DFF890335A707DE089B275
:1021E000C92904DA0122DFF880335A7075E089B218
:1021F000B1F5967F04DC0222DFF86C335A706CE094
:1022000089B2B1F5C87F04DC0322DFF85C335A7071
:1022100063E089B2B1F5FA7F04DC0422DFF84833C9
:102220005A705AE089B2B1F5167F04DC0522DFF856
:1022300038335A7051E089B2B1F52F7F04DC0622A1
:10224000DFF824335A7048E089B2B1F5487F04DCE6
:102250000722DFF814335A703FE089B2B1F5617F8D
:1022600004DC0822DFF800335A7036E089B2B1F599
:102270007A7F04DC0922DFF8F0325A702DE089B24F
:1022800040F24D42914203DA0A22B74B5A7024E0E1
:1022900089B2B1F5966F03DC0B22B34B5A701CE088
:1022A00089B240F21552914203DA0C22AE4B5A70B9
:1022B00013E089B2B1F5AF6F03DC0D22AA4B5A705F
:1022C0000BE089B240F2DD52914203DA0E22A64BB6
:1022D0005A7002E00F22A44B5A7089B2332903DAF4
:1022E0000022A14B9A7071E089B2652903DA0122BC
:1022F0009D4B9A706AE089B2972903DA02229A4BC1
:102300009A7063E089B2C92903DA0322964B9A7066
:102310005CE089B2FB2903DA0422934B9A7055E002
:1023200089B2B1F5967F03DC05228F4B9A704DE0A0
:1023300089B2B1F5AF7F03DC06228B4B9A7045E082
:1023400089B2B1F5C87F03DC0722874B9A703DE064
:1023500089B2B1F5E17F03DC0822834B9A7035E046
:1023600089B2B1F5FA7F03DC09227F4B9A702DE028
:1023700089B240F22722914203DA0A227A4B9A70FC
:1023800024E089B2B1F5167F03DC0B22764B9A70FC
:102390001CE089B240F28B22914203DA0C22724B8C
:1023A0009A7013E089B2B1F52F7F03DC0D226E4BDA
:1023B0009A700BE089B240F2EF22914203DA0E22CA
:1023C000694B9A7002E00F22674B9A7089B21A2902
:1023D00003DA0022644BDA7069E089B2332903DA48
:1023E0000122614BDA7062E089B24C2903DA0222E1
:1023F0005D4BDA705BE089B2652903DA03225A4B40
:10240000DA7054E089B27E2903DA0422564BDA707E
:102410004DE089B2972903DA0522534BDA7046E082
:1024200089B2B02903DA06224F4BDA703FE089B255
:10243000C92903DA07224C4BDA7038E089B2E22965
:1024400003DA0822484BDA7031E089B2FB2903DA5B
:102450000922454BDA702AE089B2B1F58A7F03DAA6
:102460000A22414BDA7022E089B2B1F5967F03DC93
:102470000B223D4BDA701AE089B2B1F5A37F03DA83
:102480000C22394BDA7012E089B2B1F5AF7F03DC70
:102490000D22354BDA700AE089B2B1F5BC7F03DA60
:1024A0000E22314BDA7002E00F222F4BDA707047A8
:1024B00010B50400200040B2FFF778FE2B480078EA
:1024C00010F0FD00294908702848007850F01000ED
:1024D00026490870B8202649087026480078C006AA
:1024E000FBD424480078C0F38100C0B20228F8D1A0
:1024F0001D48C3781C4882781B4841781A480078E8
:10250000FFF750FE174864B210EB8400807810F09B
:10251000070019490870134864B210EB8400C078B2
:1025200010F01F0050F04000144908701148007866
:102530008006FBD50F4800784006FBD50C48007894
:1025400010F03F000A4908700A480078C0F3810083
:10255000C0B20328F8D1034864B230F82400C0B2F6
:1025600010BD00002C0BFF1F840BFF1F0140064015
:102570000040064006400640044006400540064034
:10258000012110F01F029140914A40B2430942F8E4
:10259000231070472DE9F84380460C005FEA98103D
:1025A00010F00700C0B25FEA40194046103810F042
:1025B0003F00C0B2C000050015EB09000700E4B2FF
:1025C00017EBC400401E0600F6B2FFB2BE420DD3A8
:1025D000002200213800C0B200F012F94FF48171DE
:1025E0003800C0B200F0A0F97F1CEDE7BDE8F18330
:1025F0002DE9F84F04000D0016001F009DF92880FA
:10260000DDF82C90DDF830A04FFA88F8B8F1000F13
:1026100002D15FF0010B11E04FFA88F8B8F1010F19
:1026200002D15FF0020B09E04FFA88F8B8F1020F0F
:1026300002D15FF0040B01E05FF0100B4FFA88F855
:10264000B8F1000F05D16348854202D36248A84221
:1026500021D24FFA88F8B8F1010F09D15D488542BF
:1026600006D35E48A84203D315F00300032812D115
:102670004FFA88F8B8F1020F09D15648854206D3BF
:102680005748A84203D315F00300002803D0612166
:10269000544800F0B6F9B9F5004F03D3632151480F
:1026A00000F0AFF95048006850F002004E49086051
:1026B0004E48006850F002004C4908604C4864B233
:1026C00061010D5064B2600100F1804010F51040CE
:1026D0000661002064B2610101F1804111F51041F1
:1026E00088805FFA8BFB64B2600100F1804010F5D6
:1026F0001040A0F814B04FFA88F85FEA082010F4F0
:10270000E0604FFA88F818F00701084364B26101ED
:1027100001F1804111F51041C88048464004400C49
:1027200064B2610101F1804111F51041C88248464F
:102730004004400C64B2610101F1804111F5104187
:10274000C8832C48006830F080002A4908605FFA8E
:102750008BFB64B2600100F1804010F51040C0F8BE
:1027600008B0002064B2610101F1804111F510410F
:10277000C8605FEACA7002D4D9F1000000E000200E
:1027800064B2610101F1804111F5104188614CF2A0
:102790000A0064B2610101F1804111F510418883A2
:1027A000FFB27809313050F08000134964B26054B0
:1027B00012493800C0B200F0B7F85946C9B2280033
:1027C000FFF7E8FE200040B2FFF7DAFEBDE8F18F28
:1027D00000E100E010F00F4013F10F4012F10F4044
:1027E00010F10F404C350000408004403C80044014
:1027F00000900040008000400010024000010100F5
:1028000070B504000D0016004FF480712000C0B2B6
:1028100000F08AF86DB2002D11D14148E4B2611187
:1028200050F821003E49E4B2621151F82210496982
:10283000012214F01F039A409143416136E0384869
:10284000E4B2611150F821003549E4B2621151F847
:1028500022104969012214F01F039A40114341617B
:10286000F6B2002E11D12E48E4B2611150F82100C9
:102870000068012114F01F02914088432849E4B206
:10288000621151F82210086010E02548E4B261118D
:1028900050F821000068012114F01F029140084304
:1028A0001F49E4B2621151F82210086070BD10B5E2
:1028B00004001B48E4B2611150F82100406914F093
:1028C0001F01C840C00703D47B21164800F099F8C7
:1028D0001348E4B2611150F82100012114F01F02E5
:1028E0009140C16010BD10B504000D48E4B2611103
:1028F00050F82100406914F01F01C840C00703D5FB
:102900008C21084800F07DF80548E4B2611150F8C8
:102910002100006914F01F01C84010F0010010BD33
:10292000180BFF1FB435000010B4294A12684FF489
:102930000073C0B24409A3401A43254B1A60254ACC
:10294000C0B2431152F82320012310F01F04A3400A
:10295000C2F8A0301F4AC0B2431152F82320C0B2BF
:1029600010F01F0342F8231010BC704710B4184A2F
:1029700012684FF40073C0B24409A3401A43144BC9
:102980001A60144AC0B2431152F82320012310F0F8
:102990001F04A340C2F8A03031F4E0610D4AC0B278
:1029A000431152F82320C0B210F01F0352F8232025
:1029B00012F4E0621143074AC0B2431152F82320D7
:1029C000C0B210F01F0342F8231010BC7047000083
:1029D00038800440880BFF1FDFF800F0310CFF1F28
:1029E000DFF800F0550CFF1FBFF34F8F464800681B
:1029F00010F4E0604549084343490860BFF34F8F36
:102A0000FEE738B504000D00002000F08DF82A0024
:102A100021003F4800F0C0F8002000F0A2F84FF479
:102A20007A7000F0E6F8F2E738B504000D002100F6
:102A300049B2032000F000FA200032BD10B5002496
:102A4000042000F013FA042000F046FA002841D1D7
:102A5000002000F069F8042000F03EFA012801D1BE
:102A600001200400002000F07CF82A4800F094F8CF
:102A70004FF4FA7000F0BDF8E4B2012CEBD1042061
:102A800000F02AFA0028E6D1042000F025FA0028F8
:102A900006D1002000F065F8642000F0AAF8F3E702
:102AA000042000F019FA012806D1002000F059F89E
:102AB000322000F09EF8F3E7174800F06DF8FFF7BA
:102AC0008BFF642000F095F80020FFF789FFFFF7E7
:102AD0008BFFC0E710BD10B510480468012000F05E
:102AE00023F8012000F03DF80D48E4B20F2101FB6E
:102AF0000402E4B221000B4800F04EF84FF47A7063
:102B000000F077F8EDE700000CED00E00400FA05B6
:102B10007436000028370000A836000004ED00E0FD
:102B20001004FF1FD834000010B5040064B2042C58
:102B300007DA01220121174864B2205CFFF760FE2A
:102B40000EE0042004002000441E40B2002807D0FC
:102B5000012201210F4864B2205CFFF751FEF2E729
:102B600010BD10B5040064B2042C05DA094864B243
:102B7000205CFFF79CFE0CE0042004002000441EB3
:102B800040B2002805D0034864B2205CFFF78FFEF6
:102B9000F4E710BDBC0BFF1F0EB400B582B003A953
:102BA0000091024600AB0121034878440A30FDF74A
:102BB00033FC06BC5DF810FB4D0B000010B50400A3
:102BC000002C15D0B4F1807F03D329210F48FFF7E3
:102BD00018FF00200E4908600E48046000200E49CE
:102BE000086005200A49086009480068C003FBD551
:102BF00010BD10B504002000441E002804D0074872
:102C00000068FFF7DBFFF6E710BD00001435000099
:102C100010E000E014E000E018E000E0B420FF1F46
:102C20002DE9F84304000D0064B2002C08D0022CFA
:102C30002CD018D3042C4FD03BD3052C5FD071E09F
:102C4000DFF81002006850F48060DFF808120860B6
:102C50004FF440716620FFF767FE4FF44071672024
:102C6000FFF762FE5EE0DFF8EC01006850F4006000
:102C7000DFF8E01108604FF440714320FFF754FE85
:102C80004FF440714420FFF74FFE4BE0DFF8C401E2
:102C9000006850F48050DFF8BC1108604FF44071B8
:102CA0006320FFF741FE4FF440716220FFF73CFEC6
:102CB00038E0DFF8A001006850F40050DFF894110C
:102CC00008604FF440715020FFF72EFE4FF4407122
:102CD0005120FFF729FE25E0DFF87C01006850F461
:102CE0008060DFF8741108604FF440714E20FFF7E8
:102CF0001BFE4FF440714F20FFF716FE12E0DFF885
:102D00005801006850F40060DFF84C1108604FF47F
:102D100040718920FFF708FE4FF440718820FFF7CB
:102D200003FEFFE7DFF8340164B250F82400C078F6
:102D300010F0F300DFF8241164B251F82410C870C9
:102D4000DFF8180164B250F824008078DFF80C1125
:102D500064B251F82410887064B2002C02D064B2BE
:102D6000012C07D1DFF8F80000684FF47A7148436E
:102D7000814606E0DFF8EC0000684FF47A714843C2
:102D800081462801B9FBF0F00600B6B2B6F5005F47
:102D900002DB41F6FF700600B9FBF5F0B6B2B0EB0E
:102DA00006100700BFB2202F03DBDC212E48FFF7FF
:102DB00028FE2A4864B250F82400007810F0E000A1
:102DC0008046B6B2300A10F01F0050EA08002349CE
:102DD00064B251F824100870204864B250F82400FE
:102DE00046701E4864B250F82400807A10F0E0006B
:102DF000804617F01F0050EA0800184964B251F8E5
:102E000024108872154864B250F82400007C50F0F9
:102E10008800124964B251F8241008740F4864B253
:102E200050F82400C07850F00C000C4964B251F8FE
:102E30002410C870BDE8F183084A40B252F820203F
:102E400012791206F8D5054A40B252F82020D17105
:102E50007047000034800440288004409C0BFF1F12
:102E6000B420FF1FBC20FF1FE835000010B5040090
:102E700064B2082C0DDA00220021224864B2205CE2
:102E8000FFF7BEFC03211F4864B2205CFFF76EFD14
:102E900014E0082004002000441E40B200280DD099
:102EA00000220021174864B2205CFFF7A9FC03212F
:102EB000144864B2205CFFF759FDECE710BD10B573
:102EC0000400104864B2205CFFF70DFD002801D11A
:102ED000002000E0012010BD10B50400200040B229
:102EE000FFF7EDFF00280AD10A20FFF782FE20003D
:102EF00040B2FFF7E4FF002801D1002000E00120EC
:102F000010BD0000B40BFF1F012110F01F02914003
:102F1000784A40B2430942F823107047012110F06B
:102F20001F029140744A40B2430942F8231070478F
:102F300080B572B60FF24111672000F006F90FF26A
:102F4000F101682000F001F90FF26D11102000F07E
:102F5000FCF8002200211D20FFF752FC67491D20CC
:102F6000FFF7E2FC5720FFF7D9FF002200214020A5
:102F7000FFF746FC62494020FFF7D6FC0022002103
:102F80002020FFF73DFC5F492020FFF7CDFC5820B3
:102F9000FFF7BAFF5FF4FA310120FFF741FE62B696
:102FA000594800780128FBD100F013F85748006811
:102FB00050F00100554908605548006850F0005035
:102FC000534908605820FFF79FFF00204E490870C2
:102FD000E6E738B50024002500210120FFF72CFF8B
:102FE0005FF0FF310120FFF727FF01210120FFF7EC
:102FF00023FF00210120FFF71FFF002004003C2CCD
:1030000010DA00200500502D0ADA4248502101FB59
:103010000400295649B20120FFF70EFF6D1CF2E7AC
:10302000641CECE701210120FFF706FF31BD000021
:10303000E0B536480068C0071DD53448006850F038
:1030400001003249086000202F49087001200290D9
:10305000502001900020009040232E4A2E4900204D
:10306000FFF7C6FA5720FFF74FFF5820FFF756FF2C
:1030700000202549087007BD25480068800019D543
:103080002348006850F00050214908602348006838
:10309000401C22490860214800680421B0FBF1F27D
:1030A00002FB1102002A05D11D48006850F0010002
:1030B0001B4908607047000080B519480068400847
:1030C0004000174908601748006850F00100154992
:1030D000086012480068F0280BD15820FFF71EFF47
:1030E0005720FFF71BFF01200749087000200B49FC
:1030F000086001BD00E100E080E100E0120109008C
:103100001201010002010A001021FF1FA0A00440CB
:10311000A0900440F00DFF1FD0F00F40B020FF1F23
:103120000C8000402480004010B504004FF4007073
:1031300094FBF0F101FB1041002903D01E210B4844
:10314000FFF75FFC0A48046010BD38B504000D00AD
:10315000074800680749884203D030210348FFF739
:1031600050FC044864B240F8245031BD1C360000C5
:1031700008ED00E00000FF1FDFF800F0032A000068
:10318000DFF800F0F32B0000F0205449087053489A
:1031900000780006FBD5514800787121084201D023
:1031A000002000E00120704780B54D48006850F4D1
:1031B00000204B490860494800780006FBD5F02004
:1031C000464908700A20FFF7DBFF01BD10B582B049
:1031D0000400A4B24FF4805000FB04F000900920DA
:1031E000404908709DF802003F4908709DF80100B1
:1031F0003E4908709DF800003D490870FFF7C4FF84
:10320000002801D100200EE0A4B2002C0AD15FF00A
:10321000FF327FF001034FF48161200080B200F0A3
:1032200003F800E0012016BDF0B583B006000F00E2
:1032300014001D00B6B24FF48050BFB200FB067000
:103240000190BFB2082097FBF0F101FB107100293B
:1032500003D0EA212748FFF78FFFBFB2B7F5805FA1
:1032600003DDEC212348FFF787FF9DF806001E4988
:1032700008709DF805001D4908709DF804001C4960
:10328000087000949DF803001B4908709DF8020027
:103290001A4908709DF80100194908709DF800004E
:1032A0001849087007200F49087000959DF8030021
:1032B000154908709DF80200144908709DF8010036
:1032C000134908709DF8000012490870FFF75CFF71
:1032D000002801D1002000E00120FEBD00000240D6
:1032E00004F00140070002400600024005000240D1
:1032F00004000240803500000B0002400A0002403A
:1033000009000240080002400F0002400E00024087
:103310000D0002400C000240F0B4114E366834003B
:103320000F4E366856F47F060D4F3E600E0616F0BF
:10333000706656EA0076170517F470073E431F04BF
:1033400017F470273E43074F3E6000263500EDB26C
:103350009D4201D26D1CFAE7014E3460F0BC70470B
:1033600000F001404480044080B500F095F800F082
:103370002AF800F00AF8FFF761FB0122012104207E
:10338000FFF73EFAFFF7D4FDFEE780B50C20FFF70C
:103390008FF833490860324800684FF47A71484327
:1033A000304908602F4800682F490968C1F303615C
:1033B000491CB0FBF1F02D4908605FF4E1310320B6
:1033C000FFF72EFC01BD2DE9F84329482949884221
:1033D0000DD000208046B8F5826F08D2254850F8FD
:1033E0002800234941F8280018F10108F3E7204894
:1033F000FFF79AFE204807002048060020480400F6
:10340000A01B80464046B0F10108002804D0307867
:103410003870761C7F1CF5E71A4881461A4805006B
:10342000B5EB090080464046B0F10108002805D000
:10343000002089F8000019F10109F4E71348144944
:10344000144A531A98464346B3F10108002B04D09E
:103450000B780370491C401CF5E7BDE8F1830000C0
:10346000B820FF1FB420FF1F44800440BC20FF1F72
:103470000000FF1F000000001004FF1FB41900002F
:10348000A4210000F00DFF1F1121FF1F000CFF1FE2
:10349000783100006833000080B500F008F80C486F
:1034A00000884FF6FE7108400949088001BDEFF31E
:1034B000118072B64CF22051064A11804DF6281147
:1034C000044A1180C0B2002800D162B670470000E3
:1034D000002005400E2005400A2A2A2A2A64656633
:1034E00061756C745F69737220656E746572656472
:1034F000206F6E20766563746F722025642A2A2AF5
:103500002A2A0A0A257320496E74657272757074CE
:1035100000000000453A5C7A6E635C70726F6A6509
:1035200063745C6B36305C696D616765313230376E
:103530005C436869705C7372635C4D4B36305F53FB
:1035400079735469636B2E6300000000453A5C7A1E
:103550006E635C70726F6A6563745C6B36305C6955
:103560006D616765313230375C436869705C7372D6
:10357000635C4D4B36305F646D612E63000000006C
:10358000453A5C7A6E635C70726F6A6563745C6BFB
:1035900036305C696D616765313230375C4368692C
:1035A000705C7372635C4D4B36305F666C61736840
:1035B0002E630000453A5C7A6E635C70726F6A65D8
:1035C00063745C6B36305C696D61676531323037CE
:1035D0005C436869705C7372635C4D4B36305F6747
:1035E00070696F2E63000000453A5C7A6E635C7010
:1035F000726F6A6563745C6B36305C696D616765B8
:10360000313230375C436869705C7372635C4D4B78
:1036100036305F756172742E63000000453A5C7A43
:103620006E635C70726F6A6563745C6B36305C6984
:103630006D616765313230375C436869705C737205
:10364000635C6D6973632E630000000010B5074969
:1036500079441831064C7C44163404E00A68081D8D
:10366000511888470146A142F8D110BD2C00000036
:1036700038000000417373657274696F6E20666173
:10368000696C656420696E202573206174206C6903
:103690006E652025640A00006FD9FFFF2413000027
:1036A000F00DFF1F000000000ABDF8D0D0BDE2CB36
:1036B000F8B2D9D7F7A3ACC7EBD6D8D0C2CBA2C843
:1036C000EBB9CCBCFE00000000F00BF8002801D0E4
:1036D000FFF7BCFF0020C046C046FFF729FC00F002
:1036E00002F80120704700F001B800000746384694
:1036F00000F002F8FBE70000202109032631182022
:10370000ABBEF9E738B504460D46284600F006F88A
:10371000A84218BF0024204632BD00000149FFF72F
:1037200083B900BFC00BFF1F0ABDF8C8EBCBC0D1E7
:10373000ADBBB7B5C8B4FDA3A1000000C046C046EC
:10374000C046C046FFF7C0FF0000000000000000B8
:103750000000000000000000000000000000000069
:1037600000000000FFFFFFFFFFFFFFFF0000000061
:103770000000000000000000000000000000000049
:103780000000000000000000000000000000000039
:10379000FFFFFFFFFFFF000000000000000000002F
:1037A0000000000000000000000000000000000019
:1037B0000000000000000000000000000000000009
:1037C00000000000000000000000000000000000F9
:040000050000373D83
:00000001FF
